:04080000C5EF04F04C
:0608080041823BEF85F088
:100818004180D8CFDAF0E8CFDBF0E0CFDCF0FACFD8
:10082800DDF0FBCFDEF0E9CFDFF0EACFE0F0E1CF9B
:10083800E1F0E2CFE2F0D9CFE3F0DACFE4F0F3CFA2
:10084800E5F0F4CFE6F0F6CFE7F0F7CFE8F0F8CF31
:10085800E9F0F5CFEAF041C0EBF042C0ECF043C05C
:10086800EDF044C0EEF00E0138A505D0F60EC86EC6
:100878003895112A5AD02CBD36AD21D08EB455D01A
:1008880018501918D8B40AD0160E0001D56F000EEA
:10089800D66FFFEC8DF0CFEC8FF047D01C501D18B1
:1008A800D8B40AD01A0E0001D56F000ED66FFFEC2F
:1008B8008DF0CFEC8FF039D00E012C9D36D02DB9AC
:1008C80037A933D08EAC8EAE20D08EBA1ED08EA073
:1008D8002CD014501518D8B40AD0120E0001D56FB8
:1008E800000ED66FFFEC8DF0C1EC8FF01ED02050BB
:1008F8002118D8B418D01E0E0001D56F000ED66F7F
:10090800FFEC8DF0C1EC8FF010D0120E0001D56F06
:10091800000ED66FEEEC8FF01E0E0001D56F000EA4
:10092800D66FEEEC8FF00E012D99EEC044F0EDC0BD
:1009380043F0ECC042F0EBC041F0EAC0F5FFE9C07B
:10094800F8FFE8C0F7FFE7C0F6FFE6C0F4FFE5C030
:10095800F3FFE4C0DAFFE3C0D9FFE2C0E2FFE1C081
:10096800E1FFE0C0EAFFDFC0E9FFDEC0FBFFDDC05A
:10097800FAFFDCC0E0FFDBC0E8FFDAC0D8FF419037
:0609880010000BEF8BF0E4
:10FC380000008040C020A060E0109050D030B0702C
:10FC4800F0088848C828A868E8189858D838B878B4
:10FC5800F8048444C424A464E4149454D434B474D8
:10FC6800F40C8C4CCC2CAC6CEC1C9C5CDC3CBC7C54
:10FC7800FC028242C222A262E2129252D232B272D2
:10FC8800F20A8A4ACA2AAA6AEA1A9A5ADA3ABA7A54
:10FC9800FA068646C626A666E6169656D636B67678
:10FCA800F60E8E4ECE2EAE6EEE1E9E5EDE3EBE7EF4
:10FCB800FE018141C121A161E1119151D131B1719F
:10FCC800F1098949C929A969E9199959D939B97924
:10FCD800F9058545C525A565E5159555D535B57548
:10FCE800F50D8D4DCD2DAD6DED1D9D5DDD3DBD7DC4
:10FCF800FD038343C323A363E3139353D333B37342
:10FD0800F30B8B4BCB2BAB6BEB1B9B5BDB3BBB7BC3
:10FD1800FB078747C727A767E7179757D737B777E7
:10FD2800F70F8F4FCF2FAF6FEF1F9F5FDF3FBF7F63
:10FD3800FF000101020102020301020203020303A0
:10FD4800040102020302030304020303040304047C
:10FD5800050102020302030304020303040304046B
:10FD6800050203030403040405030404050405054C
:10FD7800060102020302030304020303040304044A
:10FD8800050203030403040405030404050405052C
:10FD9800060203030403040405030404050405051B
:10FDA80006030404050405050604050506050606FC
:10FDB8000701020203020303040203030403040409
:10FDC80005020303040304040503040405040505EC
:10FDD80006020303040304040503040405040505DB
:10FDE80006030404050405050604050506050606BC
:10FDF80007020303040304040503040405040505BA
:10FE0800060304040504050506040505060506069B
:10FE1800070304040504050506040505060506068A
:10FE2800070405050605060607050606070607076B
:10FE38000830313233343536373839414243444556
:10FE4800460108080204010802020104040801042A
:10FE5800080202020104040108FEFDBF7FFBF7EF60
:10FE6800DF22F00000000000000000000000000693
:10FE780030053004300930073008304C00000000ED
:10FE88000020F01E001F0020002100220023002473
:10FE9800002500260027002D002E002A0000000063
:10FEA800002B0014001A000800150017001C001889
:10FEB800000C00120013002F003000310000000079
:10FEC80000390004001600070009000A000B000DA5
:10FED800000E000F0033003400000028000000006E
:10FEE8000001201D001B000600190005001100106C
:10FEF8000036003700380000004B000520000000E5
:10FF08000000200320022000F0000000002C000167
:10FF1800F00000000000004A004E004D0000000004
:10FF28000029003A003B003C003D003E003F0040F5
:10FF380000410042004300440045004C000000001E
:10FF48000035001E001F002000210022002300248D
:10FF5800002500260027002D002E002A00000000A2
:10FF6800002B0014001A000800150017001C0018C8
:10FF7800000C00120013002F0030003100000000B8
:10FF880000390004001600070009000A000B000DE4
:10FF9800000E000F003300340000002800000000AD
:10FFA8000001201D001B00060019000500110010AB
:10FFB800003600370038000000520005200000001D
:10FFC8000000200320022000F0000000002C0001A7
:10FFD800F0000000000000500051004F0000000039
:10FFE800002D434F4E4E4543542C0048656C6C6FB2
:08FFF80021212121212100003B
:020000040001F9
:100000000501086F0001D151020DEF0EF324D96EE6
:10001000000EF420DA6EDECF00F5DDCF01F505012C
:100020000851070D020EF326000EF422600EF32491
:10003000D96E000EF420DA6EDF50026F0251020D0D
:10004000F3500027F450012300C5F6FF01C5F7FF68
:10005000000EF86E0851070D050EF326000EF4226F
:10006000600EF324D96E000EF420DA6E0900F5CF8D
:10007000DEFF0800F5CFDDFFB2D10001BF51FF0A5E
:10008000BE17D151FF0AD0170C8412000501085188
:10009000070D050EF326000EF422600EF324D96E30
:1000A000000EF420DA6EDE5006E1100EDE18D8A441
:1000B00002D0010E01D0000E026F036B010E02137D
:1000C000000E031302510311D8B405D00001BEABDA
:1000D00002D0BE9B42D005010851070D050EF32644
:1000E000000EF422600EF324D96E000EF420DA6EB6
:1000F000DE5006E1100EDE18D8A402D0010E01D0A9
:10010000000E026F036B050E0213000E0313025163
:100110000311D8B405D00001BEA302D0BE931DD0F8
:1001200005010851070D050EF326000EF422600E9E
:10013000F324D96E000EF420DA6EDF50006F070E44
:100140000017010E016F002B02D0D8900137002F4D
:10015000FCD7050101510001BE1B05010851070D27
:10016000050EF326000EF422600EF324D96E000E65
:10017000F420DA6EDF50006F070E0017010E016FDA
:10018000002B02D0D8900137002FFCD70501015178
:100190000001BF130C84120005010851070D050E64
:1001A000F326000EF422600EF324D96E000EF42024
:1001B000DA6EDF50006F070E0017010E016F002B83
:1001C00002D0D8900137002FFCD705010151000162
:1001D000BF130C84120005010851070D050EF3260C
:1001E000000EF422600EF324D96E000EF420DA6EB5
:1001F000DF50006F010E016F000E026F002B03D065
:10020000D89001370237002FFBD7050101510001BB
:10021000CE13050102510001CF130C821200000120
:10022000C8817FD00001C8857CD00001C88379D007
:10023000F7C000F50501016B00BF0107010E0027A3
:10024000000E012301BF0BD0015104E1080E005D37
:10025000D8A005D0000E056F080E046F0DD0010E5A
:100260000001F7250501046FE86AD8B0E82A00010B
:10027000F7BFE8060501056F04C5F7F052D0FF0E81
:10028000006FFF0E016FF7C002F5036B02BF03079B
:10029000005102270151032303BF06D0035109E196
:1002A000040E025DD8B005D0000E076F030E066F76
:1002B00010D0FF0E006FFF0E016F00510001F725F7
:1002C0000501066F000E0001F7BFFF0E05010121B9
:1002D000076F06C5F7F025D005010851070D050E7B
:1002E000F326000EF422600EF324D96E000EF420E3
:1002F000DA6EDECF00F5DDCF01F50151500AD8A44A
:1003000010D00051010AD8B48AD7030AD8B48AD7CA
:10031000010AD8B48AD7070AD8B48AD7010AD8B450
:10032000AED70C8812000C881200010E0001D16FAC
:100330001200010E0001D16FD051D8A402D0010EDD
:1003400001D0000ED06F1200000E0001D26F12001B
:10035000010E0001D26F1200020E0001D26F1200D6
:100360000B8C12000B8A12000B8412000C861200F8
:100370000851070D050EF326000EF422600EF3243B
:10038000D96E000EF420DA6EDECF00F5DDCF01F578
:100390000151F00AD8A412000051000AD8B4C5D700
:1003A000010AD8B4C2D7030AD8B4C3D7010AD8B453
:1003B000C0D70E0AD8B4DAD71D0AD8B4C5D7010AF7
:1003C000D8B4C6D7030AD8B4C7D7320AD8B4CAD764
:1003D000020AD8B4C9D7010AD8A41200C1D7000EA6
:1003E000006FF00E016F0851070D050EF326000E89
:1003F000F422600EF324D96E000EF420DA6EDECF04
:1004000002F5DDCF03F50051021701510317035127
:10041000000AD8B413D0100AD8B415D0300AD8B412
:1004200017D0100AD8B419D0700AD8B41BD0100A4B
:10043000D8B41DD0A00AD8A412001ED00251000AC0
:10044000D8A412001AD60251000AD8A412001ED64F
:100450000251000AD8A412009FD60251000AD8A463
:100460001200B9D60251000AD8A412005CD702517A
:10047000000AD8A4120030D70251000AD8A41200F2
:1004800077D788EC8FF0A8EC8EF09CEC8BF01A0EEE
:100490000501006F000E016F000E026F010E036F69
:1004A000E3EC8EF0160E0501006F000E016F000EDA
:1004B000026F020E036FE3EC8EF01E0E0501006F5B
:1004C000000E016F000E026F030E036FE3EC8EF05F
:1004D000120E0501006F000E016F000E026F040E78
:1004E000036FE3EC8EF0010E05010D6F2C0E0C6F07
:1004F00083EC8CF0F28E49EC8FF0000E0501156F45
:100500000B0E156501D00CD01551010DB20EF32460
:10051000D96E000EF420DA6E000EDF6E152BF0D7C8
:10052000C80E006F000E016F000E026F000E036F09
:1005300046EC8EF0000E0501166F0B0E166501D00D
:1005400017D01651010DB20EF324D96E000EF4200F
:10055000DA6E010EDF6E640E006F000E016F000E8A
:10056000026F000E036F46EC8EF00501162BE5D7E7
:10057000C80E006F000E016F000E026F000E036FB9
:1005800046EC8EF0000E0501176F0B0E176501D0BB
:1005900017D01751010DB20EF324D96E000EF420BE
:1005A000DA6E000EDF6E0A0E006F000E016F000E95
:1005B000026F000E036F46EC8EF00501172BE5D796
:1005C000140E006F000E016F000E026F000E036F1D
:1005D00046EC8EF0F30E0501066FFF0E076F88ECF8
:1005E0008EF00B8E8EA202D08C8E01D08C9E11ECE0
:1005F0008CF0E5EC83F00BAE07D0D7EC8BF006C5A2
:10060000F3F007C5F4F00B9E0CA010D09DEC8FF01A
:10061000000E0501146F8EAC8EAE02D0010E146F69
:1006200014B102D07E9801D07E880C900CA20AD022
:10063000BAEC8CF0030E05010D6FE80E0C6F83EC25
:100640008CF00C920CA410D0D4EC89F04CEC8AF015
:10065000010E05010D6F2C0E0C6F83EC8CF0000168
:10066000C051C119D8B40C940CA60AD039EC8FF043
:10067000010E05010D6F2C0E0C6F83EC8CF00C96A7
:100680000CA815D05EEC86F056EC8BF0010E05013F
:100690000D6F2C0E0C6F83EC8CF00001C951D8A4A7
:1006A00006D0CA51D8A403D0CB51D8B40C980BA013
:1006B00008D0010E05010D6F2C0E0C6F83EC8CF031
:1006C0000B900BA209D00B8A010E05010D6F2C0EA9
:1006D0000C6F83EC8CF00B920BAC0AD0BAEC8FF061
:1006E000010E05010D6F2C0E0C6F83EC8CF00B9C32
:1006F0000BA60AD0AEEC8DF0020E05010D6F580E60
:100700000C6F83EC8CF00B960BA80AD0DDEC8FF00D
:10071000010E05010D6F2C0E0C6F83EC8CF00B9805
:100720000BAA0AD093EC8FF0010E05010D6F2C0E71
:100730000C6F83EC8CF00B9A0BA454D7000E0501C0
:10074000186F0B0E186501D00CD01851010DB20EA8
:10075000F324D96E000EF420DA6E000EDF6E182B33
:10076000F0D7C80E006F000E016F000E026F000E72
:10077000036F46EC8EF0000E0501196F0B0E196524
:1007800001D017D01951010DB20EF324D96E000E0D
:10079000F420DA6E010EDF6E640E006F000E016F42
:1007A000000E026F000E036F46EC8EF00501192B50
:1007B000E5D7C80E006F000E016F000E026F000E2D
:1007C000036F46EC8EF0FF000DD7000E7B6E00F03D
:1007D0008D50010D390EF324F66EFC0EF420F76EE9
:1007E000F86A000EF8220800F55005010A6F096B3F
:1007F0008A50010D390EF324F66EFC0EF420F76ECC
:10080000F86A000EF8220800F5500913000E0A13CA
:10081000092903E10A29D8B478D0000E126F050E19
:10082000126501D048D07B68000E826E000E856E86
:10083000826885681251010D610EF324F66EFE0E7A
:10084000F420F76EF86A000EF8220800F5CF7BFF5F
:1008500000F08D50010D390EF324F66EFC0EF420DD
:10086000F76EF86A000EF8220800F55005010A6FCD
:10087000096B8A50010D390EF324F66EFC0EF4203C
:10088000F76EF86A000EF8220800F5500913000E02
:100890000A13091D0B6F0A1D0C6F1251020DA60ED3
:1008A000F324D96E000EF420DA6E0BC5DEFF0CC502
:1008B000DDFF122BB4D7000E7B6E000E126F050EFB
:1008C000126501D036D01251020DA60EF324D96E56
:1008D000000EF420DA6EDECF10F5DDCF11F5000E3C
:1008E0000F6F0DD010A106D01251100DF3500F252F
:1008F00045EC89F00501D890113310330F2B1051BE
:100900001111D8A4EFD7122BDAD7000E126F050EF3
:10091000126501D00ED01251020DA60EF324D96E2D
:10092000000EF420DA6E000EDE6E000EDD6E122B6D
:10093000EED7000E136F090E136501D0120013518C
:10094000070D020EF326000EF422600EF324D96E7A
:10095000000EF420DA6EDE28D8B48AD01351070DC9
:10096000020EF326000EF422600EF324D96E000E60
:10097000F420DA6EDF50096F0F0E09171351070DBF
:10098000020EF326000EF422600EF324D96E000E40
:10099000F420DA6EDF500A6F0A390F0B0B6F0C6B05
:1009A000D8900B370C37A60E0B25D96E000E0C21F4
:1009B000DA6EDECF0DF5DDCF0EF5092B03D0D89022
:1009C0000E330D33092FFBD705010DA138D013517C
:1009D000070D600EF324D96E000EF420DA6E050EBA
:1009E000DE18D8A421D01351070D010EF326000EF6
:1009F000F422600EF324D96E000EF420DA6EDF507C
:100A0000D8A436D01351070D010EF326000EF422A0
:100A1000600EF324D96E000EF420DA6E010EDF6E44
:100A2000135100EC80F024D005011351070D600E26
:100A3000F324D96E000EF420DA6EDF2A19D0135198
:100A4000070D600EF324D96E000EF420DA6EDF502D
:100A5000D8A404D013517BEC87F00AD005011351C0
:100A6000070D600EF324D96E000EF420DA6EDF0657
:100A70000501132B60D7FACF2CF0FBCF2DF0E9CF77
:100A80002EF0EACF2FF0E1CF30F0E2CF31F0D9CF26
:100A900032F0DACF33F0F3CF34F0F4CF35F0F6CFD5
:100AA00036F0F7CF37F0F8CF38F0F5CF39F041C056
:100AB0003AF042C03BF043C03CF044C03DF00E0170
:100AC00038A13ED0CE683891EFEC8FF0010E0526AC
:100AD000000E062207220822FF0E0514286EFF0EC4
:100AE0000614296E000E07142A6E000E08142B6ED1
:100AF000285029102A102B10D8B40B8EFF0E051485
:100B0000286E030E0614296E000E07142A6E000EBE
:100B100008142B6E285029102A102B10D8B40C80E2
:100B20008EBEA6D00150021003100410D8B406D017
:100B30000106000E025A035A045A9AD00B8498D028
:100B400036AF52D08694F5B302D0F5A506D0EBECC3
:100B50008FF00E01F599F58945D0EBEC8FF03E6EE4
:100B60001E0E226E000E236E3EC024F052EC8DF05D
:100B7000E90EF66EFF0EF76E000EF86E0800F550E7
:100B80003E18D8A402D0010E26D01050010DE90E57
:100B9000F324F66EFF0EF420F76EF86A000EF822CA
:100BA0000800F5503E18D8A415D0102AE90E226E80
:100BB000FF0E236E67EC8EF01050286E296A2250CB
:100BC00028180AE123502918D8A406D0000E106E68
:100BD0000B8802D0000E106E010E0001D46F0E01C2
:100BE00036BF46D0868444D037AB42D07E90E0B347
:100BF00002D0E0A506D0E8EC8FF00E01E099E08984
:100C000036D0E8EC8FF03F6E1E0E226E000E236E83
:100C10003FC024F052EC8DF0210E3F18D8A402D032
:100C2000799823D0400E3F18D8A402D079881DD0DF
:100C3000230E3F18D8A402D0FF0017D0240E3F186F
:100C4000D8A402D00B8611D0250E3F18D8A402D00C
:100C50000B8A0BD03F50D8B408D01A0E226E000E6B
:100C6000236E3FC024F052EC8DF00E0137AB7E8036
:100C70003DC044F03CC043F03BC042F03AC041F0BC
:100C800039C0F5FF38C0F8FF37C0F7FF36C0F6FFB0
:100C900035C0F4FF34C0F3FF33C0DAFF32C0D9FFF0
:100CA00031C0E2FF30C0E1FF2FC0EAFF2EC0E9FFF4
:100CB0002DC0FBFF2CC0FAFF41921100F5C006F5D4
:100CC000000E0001C96F000ECA6F000ECB6F0ED16F
:100CD0000001D151020DEF0EF324D96E000EF42065
:100CE000DA6EDECF00F5DDCF01F505010651070D07
:100CF000020EF326000EF422600EF324D96E000ECD
:100D0000F420DA6EDF50026F0251020DF35000271B
:100D1000F450012300C5F6FF01C5F7FF000EF86E81
:100D20000900F5CF04F50A00F5CF05F5000E006FB8
:100D3000F00E016F04C502F505C503F50051021759
:100D400001510317400E03190211D8B480D0C0D04E
:100D5000000E0001C96FCA6912000001C969CA69A1
:100D600012000001C969000ECA6F12000001C969B2
:100D7000010ECA6F1200000E0001C96F010ECA6F8A
:100D80001200010E0001C96F010ECA6F1200010EA0
:100D90000001C96F000ECA6F1200010E0001C96F79
:100DA000CA691200000E0001C96FF751010DF3501E
:100DB0000008CA6F12000001F751010DF35000083E
:100DC000C96FF751010DF3500008CA6F12000001FE
:100DD000F751010DF3500008C96F000ECA6F1200E1
:100DE0000001F751010DF3500008C96FF751010DD3
:100DF000F3CFCAF01200000E0001C96FF751010DC8
:100E0000F3CFCAF012000001F751010DF3CFC9F082
:100E1000F751010DF3CFCAF012000001F751010D97
:100E2000F3CFC9F0000ECA6F12000001F751010D97
:100E3000F3CFC9F0F751010DF3500008CA6F12004B
:100E4000010E0001CB6F12000001CB69120004C536
:100E500000F505C501F505010151400AD8A41200AD
:100E60000051000AD8B474D7010AD8B476D7030A5F
:100E7000D8B477D7010AD8B479D7070AD8B47BD7C2
:100E8000010AD8B47ED7030AD8B481D7010AD8B4EE
:100E900084D7170AD8B486D7010AD8B48CD7030AE6
:100EA000D8B495D7010AD8B49BD7070AD8B4A3D72A
:100EB000010AD8B4A8D7030AD8B4AFD7010AD8B466
:100EC000B4D7E70AD8B4BCD7010AD8A41200BCD75B
:100ED0000651070D030EF326000EF422600EF324D4
:100EE000D96E000EF420DA6EDF50066F0501062978
:100EF000D8B41200EDD60501076F0501075162EC69
:100F000088F005010751070D010EF326000EF422AB
:100F1000600EF324D96E000EF420DA6E000EDF6E40
:100F20000751070D020EF326000EF422600EF32483
:100F3000D96E000EF420DA6EFF0EDF6E0751070D3A
:100F4000050EF326000EF422600EF324D96E000E77
:100F5000F420DA6E000EDE6E000EDD6E0751070D16
:100F6000040EF326000EF422600EF324D96E000E58
:100F7000F420DA6EDE28D8A421D00751070D030E25
:100F8000F326000EF422600EF324D96E000EF42036
:100F9000DA6EDF500001F56FF529D8B438D0F5517D
:100FA000070D040EF326000EF422600EF324D96E12
:100FB000000EF420DA6EFF0EDF6E29D00501075116
:100FC000070D030EF326000EF422600EF324D96EF3
:100FD000000EF420DA6E0751070D040EF326000E02
:100FE000F422600EF324E16E000EF420E26EE7506E
:100FF000066F0651070D030EF326000EF422600E55
:10100000F324E16E000EF420E26EDFCFE7FF05016E
:101010000751070D030EF326000EF422600EF32491
:10102000D96E000EF420DA6EDE28D8A421D0075144
:10103000070D040EF326000EF422600EF324D96E81
:10104000000EF420DA6EDF500001F66FF629D8B4F6
:101050001200F651070D030EF326000EF422600E67
:10106000F324D96E000EF420DA6EFF0EDF6E12004C
:1010700005010751070D040EF326000EF422600E41
:10108000F324D96E000EF420DA6E0751070D030E1B
:10109000F326000EF422600EF324E16E000EF4201D
:1010A000E26EE750066F0651070D040EF326000EA0
:1010B000F422600EF324E16E000EF420E26EDFCF26
:1010C000E7FF12000501056F9AD00C84120005514C
:1010D000070D050EF326000EF422600EF324D96EE0
:1010E000000EF420DA6EDF50006F070E0017010EBD
:1010F000016F002B02D0D8900137002FFCD70501DB
:101100000151FF0A0001BF170C84120005010551AF
:10111000070D050EF326000EF422600EF324D96E9F
:10112000000EF420DA6EDF50006F010E016F000E2A
:10113000026F002B03D0D89001370237002FFBD766
:101140000501011D036F021D046F03510001CE173D
:10115000050104510001CF170C8212000001C89153
:1011600025D00001C89522D00001C8931FD00501E9
:101170000551070D050EF326000EF422600EF32430
:10118000D96E000EF420DA6EDECF00F5DDCF01F56A
:101190000151500AD8A40AD00051010AD8B4DED7B0
:1011A000030AD8B4DED7010AD8B4DED70C881200FF
:1011B000000E0001D16F120005010551070D050E4B
:1011C000F326000EF422600EF324D96E000EF420F4
:1011D000DA6EDECF00F5DDCF01F50151F00AD8A4BB
:1011E00012000051000AD8B4E3D7010AD8B4E0D7FE
:1011F000030AD8B4DDD7010AD8A41200D9D7000E4B
:101200000501006FF00E016F0551070D050EF32665
:10121000000EF422600EF324D96E000EF420DA6E74
:10122000DECF02F5DDCF03F50051021701510317A0
:101230000351000AD8B410D0100AD8B412D0300A22
:10124000D8B40FD0100AD8B411D0600AD8B413D0D3
:10125000A00AD8A4120014D00251000AD8A4120087
:1012600034D70251000AD8A4120031D70251000A23
:10127000D8A412004BD70251000AD8A4120077D785
:101280000251000AD8A4120097D70501016F000E81
:101290000501026F090E026501D012D00251070D3F
:1012A000020EF326000EF422600EF324D96E000E17
:1012B000F420DA6E0151DE18D8B41200022BEAD7FE
:1012C000000E026F090E026501D012000251070DD7
:1012D000020EF326000EF422600EF324D96E000EE7
:1012E000F420DA6EDE28D8A45DD00251070D020E7C
:1012F000F326000EF422600EF324D96E000EF420C3
:10130000DA6E01C5DFFF0251070D600EF324D96EBE
:10131000000EF420DA6E010EDF6E0251070D040E8E
:10132000F326000EF422600EF324D96E000EF42092
:10133000DA6EFF0EDF6E0001F629D8A412D002C5C6
:10134000F6F005010251070D030EF326000EF422FC
:10135000600EF324D96E000EF420DA6EFF0EDF6EFD
:101360001ED00001F551070D040EF326000EF422E5
:10137000600EF324D96E000EF420DA6E02C5DFFF92
:1013800005010251070D030EF326000EF422600E34
:10139000F324D96E000EF420DA6EF5C0DFFF02C52B
:1013A000F5F01200022B8ED7F6C004F5000E0501F1
:1013B000056FC0C0C1F0000E0001C06F59D005011B
:1013C0000451070D010EF326000EF422600EF324E3
:1013D000D96E000EF420DA6EDF50D8B43BD0045141
:1013E000070D050EF326000EF422600EF324D96ECD
:1013F000000EF420DA6EDECF02F5DDCF03F5F00E3D
:101400000315D8A427D0060E056124D0000E016F65
:101410000DD00151010DC20EF324D96E000EF4203F
:10142000DA6E0251DE18D8B415D0012B0551015DDA
:10143000D8A0EFD703510F0B0001C01305010551D0
:10144000010DC20EF324D96E000EF420DA6E02C52F
:10145000DFFF052B0451070D040EF326000EF422C6
:10146000600EF324D96E000EF420DA6EDF50046FA4
:1014700005010429D8A4A3D7050E056501D01200E3
:101480000551010DC20EF324D96E000EF420DA6E60
:10149000000EDF6E052BF0D70001D351D8B4120037
:1014A000160E0501006F000E016FFD0E026FF0ECCD
:1014B0008CF0160E0501006F000E016F090E026F11
:1014C000F0EC8CF0160E0501006F000E016F010E9E
:1014D000026FF0EC8CF0160E0501006F000E016F2C
:1014E0000001BF51C011C111BE110501026FF0EC26
:1014F0008CF0160E0501006F000E016F000E026FDA
:10150000F0EC8CF0160E0501006F000E016FC2C0EA
:1015100002F5F0EC8CF0160E0501006F000E016F65
:10152000C3C002F5F0EC8CF0160E0501006F000E42
:10153000016FC4C002F5F0EC8CF0160E0501006FCF
:10154000000E016FC5C002F5F0EC8CF0160E05011F
:10155000006F000E016FC6C002F5F0EC8CF0160EA5
:101560000501006F000E016FC7C002F5F0EC8CF0B2
:1015700023EC8EF01200030E84128268000E836E3C
:1015800085680E019969000EA16FAE69000E050114
:10159000006F050E006501D00ED00051020DA60EA1
:1015A000F324D96E000EF420DA6E000EDE6E000E0B
:1015B000DD6E002BEED7000E006F090E006501D026
:1015C00012000051070D600EF324D96E000EF420B6
:1015D000DA6E000EDF6E0051070D020EF326000ECC
:1015E000F422600EF324D96E000EF420DA6EFF0EA2
:1015F000DF6E0051070D050EF326000EF422600E7B
:10160000F324D96E000EF420DA6E000EDE6E000EAA
:10161000DD6E002BD2D7778E779CC60EF66E1F0E2E
:10162000F76E010EF86E00EEEFF010EE09F0090013
:10163000F5CFEEFFE550E150FAE104EE00F011EED7
:1016400000F0EE6AE550E150FCE1E250FAE103EE11
:1016500000F011EE00F0EE6AE550E150FCE1E250DE
:10166000FAE102EE00F011EE00F0EE6AE550E15012
:10167000FCE1E250FAE101EE00F011EE00F0EE6A5A
:10168000E550E150FCE1E250FAE100EE60F0750E49
:10169000EE6AE806FDE100EE01F0210EEE6AE806D2
:1016A000FDE141904192000141EF82F00001D351F0
:1016B000D8B41200160E0501006F000E016FFD0E6A
:1016C000026FF0EC8CF0160E0501006F000E016F3A
:1016D000050E026FF0EC8CF0160E0501006F000E87
:1016E000016F020E026FF0EC8CF0160E0501006F18
:1016F000000E016FC8C002F5F0EC8CF0160E05016B
:10170000006F000E016FC9C002F5F0EC8CF0160EF0
:101710000501006F000E016FCAC002F5F0EC8CF0FD
:10172000160E0501006F000E016FCBC002F5F0EC44
:101730008CF023EC8EF0120058EC8FF07CEC8FF0E4
:10174000A7EC8FF0BBEC8AF00E0E0E01836F1191A7
:101750001193119511971189118B140E856F1791A3
:101760001783179517971789178B050ED26E010EE1
:10177000CF6E050ECC6E010EC96E820EC46FDAEC10
:101780008DF064EC8FF070EC8FF0F28A0E01228FF6
:101790002C8F229D2C8D238B2D8B23992D89248199
:1017A0002E8124952E85F28C798886841200000E75
:1017B00005010D6F000E0C6F000E0B6F798A000E85
:1017C0000D6F090E0D6501D014D0000E11EC8FF0D5
:1017D00000C509F501C50AF5050109510B5D0A515E
:1017E0000C59D8B004D009C50BF50AC50CF50D2B62
:1017F000E8D7799A0BC500F50CC501F5000E036F0B
:101800006C0E026FFDEC8EF0070E0501086FD8908C
:1018100001330033082FFBD700C506F501C507F5D6
:1018200012008CBC02D0010E01D0000E0E18D8B4EC
:1018300017D00F2A0A0E0F18D8A414D00E50D8A40F
:1018400002D0010E01D0000E0E6E0E50D8A40AD0A8
:10185000D00E095C070E0A58D8B004D00B8002D015
:10186000000E0F6E0E50D8B410D0D00E09180AE139
:10187000070E0A18D8A406D00B82070E0A6ED10EE6
:10188000096E1200094A0A2A1200000E0A6E000EA2
:10189000096E1200000E7C6E000E796E050E7E6ED3
:1018A000020E7F6E000E806E430E846E010E816EFE
:1018B000EE0E866E050E876E000E886EBF0E0E0150
:1018C000A76F9269B469BC69400EA66F000E916F54
:1018D000000EB36F200EBB6F000EC06FA3698E6940
:1018E000B069B869BD69A4698F69B169B969BE6930
:1018F000000EA56F000E906F010EB26F000EBA6F52
:10190000000EBF6F12000CC500F50DC501F50501F5
:10191000026B036BA10E046F070E056F000E066FBE
:10192000000E076F82EC8DF000C50FF501C510F5B4
:1019300002C511F503C512F5000EF2BE010E050138
:101940000E6FF29E0F51015C105102581151035855
:1019500012510458D8B008D00FC501F010C502F0DC
:1019600011C503F012C504F00EB102D0F29E01D0F1
:10197000F28E12000001D351D8B41200160E0501E8
:10198000006F000E016FFD0E026FF0EC8CF0160E72
:101990000501006F000E016F030E026FF0EC8CF07A
:1019A000160E0501006F000E016F030E026FF0ECC2
:1019B0008CF0160E0501006F000E016FCEC002F50F
:1019C000F0EC8CF0160E0501006F000E016F0001A7
:1019D000CF510501026FF0EC8CF023EC8EF0120079
:1019E000050120EE02F00051D9260151DA22DF5024
:1019F000036F0351010D00C5D9FF01C5DAFFDECF2A
:101A000004F5DDCF05F5F3500425D96EF45005211A
:101A1000DA6E02C5DFFF20EE02F00051D926015137
:101A2000DA22DF2A8EB402D00E012C8D8EBC120079
:101A30008EAE12008EBA12008EA012000E012D89F9
:101A40001200050120EE02F00051D9260151DA22E0
:101A5000DF50036F0351010D00C5D9FF01C5DAFF47
:101A6000DECF04F5DDCF05F5F3500425D96EF45033
:101A70000521DA6E02C5DFFF20EE02F00051D92603
:101A80000151DA22DF2A8EB402D00E012C8D8EBCD9
:101A900012008EAE12008EBA12008EA012000E013D
:101AA0002D89120020EE02F02250D9262350DA228E
:101AB000DF50256E2550010D22C0D9FF23C0DAFF6B
:101AC000DECF26F0DDCF27F0F3502624D96EF45078
:101AD0002720DA6E24C0DFFF20EE02F02250D92644
:101AE0002350DA22DF2A8EB402D00E012C8D8EBC58
:101AF00012008EAE12008EBA12008EA012000E01DD
:101B00002D891200000E0501086F000E096F000EEE
:101B10000A6F000E0B6F00A108D004510827055171
:101B2000092306510A2307510B23D89004370537A0
:101B300006370737D890033302330133003300519F
:101B4000011102110311D8A4E6D708C500F509C593
:101B500001F50AC502F50BC503F512000001D351CA
:101B6000D8A425EC8FF0E80E0501006F030E016F7D
:101B7000000E026F000E036F46EC8EF0160E05018C
:101B8000006F000E016F240E026F21EC8DF0160E17
:101B90000501006F000E016F240E026F21EC8DF025
:101BA000160E0501006F000E016F240E026F21EC6E
:101BB0008DF01200000E6A6E000E6B6E000E6C6EE1
:101BC000000E6D6E000E686E000E696E000E666E81
:101BD000000E0F015F6F000E5D6F000E596F000E5B
:101BE0005A6F000E5B6F5C69000E656E030E586FD6
:101BF000000E566F000E576F940E606E12000001BB
:101C000020EE03F0D551D926D651DA22DF50D76F16
:101C1000D751010DD5C0D9FFD6C0DAFFDECFD8F03D
:101C2000DDCFD9F0F350D825D96EF450D921DA6E32
:101C3000DF50406E20EE03F0D551D926D651DA227E
:101C4000DF2A40501200000E0001D46F160E05016D
:101C5000006F000E016FFF0E026FF0EC8CF0000EB3
:101C6000056E000E066E000E076E000E086E000177
:101C7000D451D8A412000850071007E1100E055CDB
:101C8000270E0658D8B01200F2D71200000E056ECB
:101C9000000E066E000E076E000E086E05C004F5FD
:101CA00006C005F507C006F508C007F50501D89080
:101CB00007330633053304330051045D01510559E0
:101CC0000251065903510759D8B01200E7D722C074
:101CD00026F023C027F002D0264A272A26C0F6FF86
:101CE00027C0F7FF000EF86E0800F5500009D8A4D1
:101CF000F3D722C024F023C025F0241E251E244A39
:101D0000252A26502424226E27502520236E1200D7
:101D100013D0120E0501006F000E016F06C5F6FF0D
:101D200007C5F7FF000EF86E0800F5CF02F5F0ECDE
:101D30008CF00501064B072B06C5F6FF07C5F7FF1C
:101D4000000EF86E0800F5500009D8B41200E1D773
:101D50000D01F291F283F285F287F289F29BF29EF5
:101D6000F2940E011F8533952985000E936F000EA6
:101D7000A86F9469A96929891F898C9E030000F0C6
:101D80008C8E0E01299529998C9E12007A68000E7E
:101D90007B6E7D688268000E836E8568000E0E0182
:101DA0009A6F000EAF6F9969000EA16FAE699669C8
:101DB0009E69AB6997699F69AC69000E986FA069CD
:101DC000000EAD6F120000C5D9FF01C5DAFF02C5D4
:101DD000DEFF03C5DDFF050120EE02F00051D9262C
:101DE0000151DA22000EDF6E20EE03F00051D926F9
:101DF0000151DA22000EDF6E1200050100510203CC
:101E0000F3CF04F5F4CF05F500510303F350052794
:101E100001510203F350052704C500F505C501F57E
:101E200012000501046F04C55FFF608E609C608036
:101E300060B0FED764500501036F026B635002254A
:101E4000006F000E0321016F12000A0E0501006FE2
:101E5000000E016F000E026F000E036F46EC8EF055
:101E60007992000E0001D36F000ECD6F000ECC6F83
:101E700012000001D351D8B41200160E0501006FF4
:101E8000000E016F7F0E026FF0EC8CF023EC8EF0F1
:101E9000120079927988C80E0501006F000E016F5B
:101EA000000E026F000E036F46EC8EF07982120076
:101EB0003E0E0E014C6FF50E4D6F4E69DF0E4F6FEB
:101EC0005069B70E516F1200180E0E01E26F900E9E
:101ED000E06F240EE16F220EDE6F000EDF6F120046
:101EE000080E0E01F76F900EF56F240EF66F220E9E
:101EF000F36F000EF46F1200600E0E01436F000EC0
:101F0000456F000E476F050E496F000E486F1200B7
:101F100077503F0B8009776E4AEC8CF0C6EC8EF060
:101F2000B1EC8FF012000001D351D8B403D025ECEE
:101F30008FF0120049EC8FF012008EA21200000EFA
:101F40000001CD6F000ECC6F000ED36F1200000E9B
:101F50000E01A76F010E926F000EB46F000EBC6FE2
:101F600012000E014C694D694E694F695069516903
:101F70004C911200D7EC8BF006C50EF507C50FF596
:101F800012000001D56F0001D551C8EC8FF012008E
:101F9000406E0E01E1A3FDD740C0DDFE120000013E
:101FA000D56F0001D551D6EC8FF01200406E0E01B6
:101FB000F6A3FDD740C0F2FE12008EB2FED7010E8E
:0F1FC0000001D36F120029FF69FEFFFFFFFF052D
:101FD0000E01DC5112000E01F1511200120012002C
:020000040020DA
:10000000FF0FFF0FFF0FFF0FFF0FFF0FFF0FFF0F80
:020000040030CA
:0C000000ECDF1FF49FFFFFCCFFFFFFFFB1
:00000001FF
