:020000040000FA
:0400000022EF03F0F8
:0600080004EF04F01200F9
:100018000CEF04F012008198000E0E01A76F600E1D
:10002800A66F00F08CAA02D0010E01D0000E436E1C
:100038008CAC02D0010E01D0000E431AD8A400EFF8
:1000480004F0849E7C8E0E01B2818690B4917E90DD
:10005800600E436F080E496F1F0EB417BC951791B9
:100068001783179517971789178B180EE26F900E3D
:10007800E06F240EE16F890EDE6F140E856F879690
:100088007E80600E2A6E000E2B6EC0EC03F00E010F
:1000980037ABFDD77CBE02D07C8E01D07C9E0E0192
:1000A800E0A307D0110E2C6E000E2D6E82EC03F02B
:1000B800EED7DCCE56F07E905250D8B406D0710EF2
:1000C8005618D8A46AD1FF0068D13A0E5618D8B489
:1000D8000CD02F0E566403D0390E566406D0400E4D
:1000E80056644DD1470E56604AD157B002D0010E22
:1000F80001D0000E436E446A500E4324D96E000EA0
:100108004420DA6E56C0DFFF5750D8A40DD0000E39
:10011800536E3A0E5618D8B430D1A90E2C6E000E74
:100128002D6E82EC03F029D1020E5718D8A404D002
:1001380091EC02F0556E21D1040E5718D8A40FD0B7
:1001480091EC02F0436E446A456A44C045F043C0EE
:1001580044F0436AFF0E4D14466E000E0DD0060E95
:100168005718D8A418D091EC02F0436E446A456A37
:10017800000E4D14466EFF0E4E14476EFF0E4F14C0
:10018800486E435046104D6E445047104E6E4550D1
:1001980048104F6EF2D0080E5718D8A404D091EC2E
:1001A80002F0546EEAD05750436E446A5550456E7B
:1001B800466AD890453646360A0E4526000E46222F
:1001C8004350451803E144504618D8A497D0000E70
:1001D800496E4DC043F04EC044F04FC045F044C096
:1001E80043F045C044F0456A435055244D245424F7
:1001F800536E000E496E0BD04950010DBD0EF3240D
:10020800D96E000EF420DA6EDF505326492A555075
:10021800495CD8A0F1D7536C91EC02F05318D8B4CC
:1002280007D0B40E2C6E000E2D6E82EC03F064D055
:100238005450D8A416D0020E4F5CD8B00ED04DC082
:1002480037F04EC038F04FC039F055C03AF0BD0E07
:100258003B6E000E3C6E3DEC02F0230ED4EC03F036
:100268004BD05404D8A427D05550D8A41DD0FF0E85
:100278004D14436EFF0E4E14446E000E4F14456E1F
:10028800435044104510D8A40FD08F0E2A6E000E8C
:100298002B6EC0EC03F07B0E2A6E000E2B6EC0ECAA
:1002A80003F0010E526E28D0250E2C6E000E2D6E16
:1002B80082EC03F021D0040E5418D8A417D0020EF3
:1002C8005518D8B407D0090E2C6E000E2D6E82EC8E
:1002D80003F012D00001BE51456E446A436A43C020
:1002E8004DF044C04EF045C04FF006D0010E2C6EC4
:1002F800000E2D6E82EC03F057683FD05750436EC6
:10030800446A5550456E466AD890453646360A0EB8
:100318004526000E46224350455C4650800A476EEB
:100328004450800A4758D8B007D0200E2C6E000ED3
:100338002D6E82EC03F021D057B01FD091EC02F063
:10034800436EFC0E446EFF0E456EFF0E5724296E59
:100358002A6AFF0E2A22000E2C6E020E2B6EE0EC8B
:1003680002F04450292645502A22BD0E2924D96E70
:10037800000E2A20DA6E43C0DFFF572A0ED00A0E7D
:100388005618D8B40AD00D0E5618D8B406D09D0EFB
:100398002C6E000E2D6E82EC03F00E0137BB77D663
:1003A8007E8075D6000E356E800E2C14326EFF0ED0
:1003B8002D14336EFF0E2E14346E4A50321807E196
:1003C8004B50331804E14C503418D8B414D0800E74
:1003D8002C14296EFF0E2D142A6EFF0E2E142B6E70
:1003E80097EC03F0800E2C144A6EFF0E2D144B6E02
:1003F800FF0E2E144C6E800E2C14F66EFF0E2D146C
:10040800F76EFF0E2E14F86EF568000E366E02D0E9
:100418000D00362A7F0E3664FBD72CC0F6FF2DC0A0
:10042800F7FF2EC0F8FF0CD03550010DF3503024E3
:10043800D96EF4503120DA6EDF50F56E352A0D0092
:100448002F50355CD8A0F0D7800E2C14F66EFF0E16
:100458002D14F76EFF0E2E14F86E77503F0B80099F
:10046800776E7784550E786EAA0E786E77827794B9
:10047800120037507F0B416EFF0E3D6EFF0E3E6E31
:100488003A5041C03FF0406A3F26000E40223D509E
:100498003F263E5040223FAE31D041500008800FE9
:1004A800426E37C02CF038C02DF039C02EF042C053
:1004B8002FF03BC030F03CC031F0D6EC01F0800E9C
:1004C80037143D6EFF0E38143E6EFF0E39143F6E22
:1004D800800E3D242C6E000E3E202D6E000E3F2017
:1004E8002E6E425000083A242F6E42503B24306E44
:1004F800000E3C20316ED6EC01F0120037C02CF013
:1005080038C02DF039C02EF03AC02FF03BC030F083
:100518003CC031F0D6EC01F01200000E2B6E010E3B
:100528002B6401D047D02A3AF00E2A162B50010D21
:10053800500EF324D96E000EF420DA6E2F0EDF640D
:1005480016D02B50010D500EF324D96E000EF42056
:10055800DA6E3A0EDF600BD02B50010D500EF324EB
:10056800D96E000EF420DA6EDF50D00F20D02B5059
:10057800010D500EF324D96E000EF420DA6E400EF1
:10058800DF6416D02B50010D500EF324D96E000EE7
:10059800F420DA6E470EDF600BD02B50010D500EA1
:1005A800F324D96E000EF420DA6EDF50C90F2A2624
:1005B8002B2AB5D72A501200000E2E6E2CAE06D06C
:1005C8002B6C2C1ED8B02C2A010E2E6E2AAE06D00B
:1005D800296C2A1ED8B02A2A010E2E1A000E306E57
:1005E800000E2F6E2B502C10D8B41CD0010E2D6E7F
:1005F80004D0D8902B362C362D2A2CAEFAD7D8908A
:100608002F3630362B50295C2C502A58D8A005D0CC
:100618002B50295E2C502A5A2F80D8902C322B32FE
:100628002D2EEDD72E50D8B404D02F6C301ED8B054
:10063800302A2FC029F030C02AF01200778E779C1C
:10064800A60EF66E060EF76E000EF86E00EE60F05F
:1006580010EE5DF00900F5CFEEFFE550E150FAE14C
:10066800580EF66E070EF76E000EF86E00EE01F0EB
:1006780010EE28F00900F5CFEEFFE550E150FAE161
:1006880000EEBDF0100EEE6AE806FDE100EE4AF05D
:100698000E0EEE6AE806FDE100010FEF00F00D0A0C
:1006A80048656C6C6F210D0A73656E64202E686551
:1006B800782066696C650D0A000D0A50757368200C
:1006C80027712720746F207265736574000D0A53B3
:1006D80055434345535346554C2100496E76616C4A
:1006E80069644368617200273A276D697373696E9C
:0B06F8006700436865636B53756D007D
:10070400190E2A6E000E2B6EC0EC03F02CC02AF0DA
:100714002DC02BF0C0EC03F07B0E2A6E000E2B6E66
:10072400C0EC03F0010E526E1200800E2914F66E16
:10073400FF0E2A14F76EFF0E2B14F86E77503F0B42
:100744008009776E77847788550E786EAA0E786E56
:1007540077821200436F6D6D616E64004164647250
:100764006573730043545326525453004572726F99
:10077400723A0053697A6500454F4600000EF86EE0
:1007840009D02AC0D9FF2BC0DAFFDF50D4EC03F024
:100794002A4A2B2A2AC0D9FF2BC0DAFFDF50D8B44B
:1007A4001200EFD7296E0E0137A9FDD78EBC1200B7
:0E07B4008EAE12008EBA120029C0DDFE1200B9
:020000040020DA
:10000000FF0FFF0FFF0FFF0FFF0FFF0FFF0FFF0F80
:020000040030CA
:0C000000ECDF1EF79FFFFFCCFFFFFFFFAF
:00000001FF
