:020000040000FA
:0408000091EF04F080
:060808004882C2EF89F0F6
:100818004880D8CF1BF0E8CF1CF0E0CF1DF0E1CF27
:100828001EF0E2CF1FF0D9CF20F0DACF21F0F3CFBE
:1008380022F0F4CF23F00E0138A506D0F60EC86ECC
:10084800389500018C2B55D02CBD36AD20D08EB4F8
:1008580050D03F504018D8B409D03D0E156E000E48
:10086800166EB7EC92F015EC95F043D00001D55117
:10087800D619D8B409D0D30E156E000E166EB7EC83
:1008880092F015EC95F035D00E012C9D32D02DB993
:1008980037A92FD08EAC8EAE1ED08EBA1CD08EA0AB
:1008A80028D03B503C18D8B409D0390E156E000E2C
:1008B800166EB7EC92F010EC95F01BD0435044182C
:1008C800D8B415D0410E156E000E166EB7EC92F026
:1008D80010EC95F00ED0390E156E000E166E84ECE5
:1008E80094F0410E156E000E166E84EC94F00E0115
:1008F8002D9923C0F4FF22C0F3FF21C0DAFF20C0E6
:10090800D9FF1FC0E2FF1EC0E1FF1DC0E0FF1CC0F1
:0E091800E8FF1BC0D8FF48901000BAEF8EF029
:10F9320000008040C020A060E0109050D030B07035
:10F94200F0088848C828A868E8189858D838B878BD
:10F95200F8048444C424A464E4149454D434B474E1
:10F96200F40C8C4CCC2CAC6CEC1C9C5CDC3CBC7C5D
:10F97200FC028242C222A262E2129252D232B272DB
:10F98200F20A8A4ACA2AAA6AEA1A9A5ADA3ABA7A5D
:10F99200FA068646C626A666E6169656D636B67681
:10F9A200F60E8E4ECE2EAE6EEE1E9E5EDE3EBE7EFD
:10F9B200FE018141C121A161E1119151D131B171A8
:10F9C200F1098949C929A969E9199959D939B9792D
:10F9D200F9058545C525A565E5159555D535B57551
:10F9E200F50D8D4DCD2DAD6DED1D9D5DDD3DBD7DCD
:10F9F200FD038343C323A363E3139353D333B3734B
:10FA0200F30B8B4BCB2BAB6BEB1B9B5BDB3BBB7BCC
:10FA1200FB078747C727A767E7179757D737B777F0
:10FA2200F70F8F4FCF2FAF6FEF1F9F5FDF3FBF7F6C
:10FA3200FF000101020102020301020203020303A9
:10FA42000401020203020303040203030403040485
:10FA52000501020203020303040203030403040474
:10FA62000502030304030404050304040504050555
:10FA72000601020203020303040203030403040453
:10FA82000502030304030404050304040504050535
:10FA92000602030304030404050304040504050524
:10FAA2000603040405040505060405050605060605
:10FAB2000701020203020303040203030403040412
:10FAC20005020303040304040503040405040505F5
:10FAD20006020303040304040503040405040505E4
:10FAE20006030404050405050604050506050606C5
:10FAF20007020303040304040503040405040505C3
:10FB020006030404050405050604050506050606A4
:10FB12000703040405040505060405050605060693
:10FB22000704050506050606070506060706070774
:10FB3200083031323334353637383941424344455F
:10FB42004601080802040108020201040408010433
:10FB5200080202020104040108FEFDBF7FFBF7EF69
:10FB6200DF500450045004500404300430043004C4
:10FB7200304F044F044F044F040000000000000007
:10FB82000050045004500450040430043004300483
:10FB9200304F044F044F044F0400000000000000E7
:10FBA2000050045004500450042C002C002C002C53
:10FBB200004F044F044F044F0400000000000000F7
:10FBC2000050045004500450042C002C002C002C33
:10FBD200004F044F044F044F0400000000000000D7
:10FBE200005004500450045004053005300530051F
:10FBF2003003F04F044F044F0400000000000000E7
:10FC02000020F022F0500450040530053005301079
:10FC1200F011F012F0053004300000000000000086
:10FC2200000930093009300930043004300430044E
:10FC320030083008300830083000000000000000B2
:10FC4200000930093009300930043004300430042E
:10FC52003008300830083008300000000000000092
:10FC62000009300930093009300730073007300702
:10FC72003008300830083008300000000000000072
:10FC820000093009300930093007300730073007E2
:10FC92003008300830083008300000000000000052
:10FCA20000093009300930093005300530053005CA
:10FCB2003003F00830083008300000000000000077
:10FCC200000000000009300930053005300530051C
:10FCD2003000000000053004300000000000000089
:10FCE20000500050005000500024F024F024F02472
:10FCF200F04F004F004F004F0000000000000000D6
:10FD020000500050005000500024F024F024F02451
:10FD1200F04F004F004F004F0000000000000000B5
:10FD220000500050005000500024F024F024F02431
:10FD3200F04F004F004F004F000000000000000095
:10FD420000500050005000500024F024F024F02411
:10FD5200F04F004F004F004F000000000000000075
:10FD62000000000000000000000000000000000091
:10FD72000003F0000000000000000000000000008E
:10FD82000020F022F0055004500000000000001096
:10FD9200F011F012F0053004300000000000000005
:10FDA20000000011401040104010401740000001B8
:10FDB20050015001500350035000000000000000A9
:10FDC20000000012400140004007401640000001C0
:10FDD2005001500150035003500000000000000089
:10FDE20000000012400240000006401640000001E0
:10FDF2005001500150035003500000000000000069
:10FE0200000000124003400440054016400000007C
:10FE1200000000000002500250000000000000003C
:10FE2200000000134014401440144015400000F03C
:10FE32004003F000000250025000000000000000E9
:10FE420000F040F14000000000000000000000F15E
:10FE52004000000000F140F04000000000000000FF
:10FE6200003A003B003C003D003E003F00400041A4
:10FE72000042004300440045000000000000000072
:10FE8200002B0072611A000800516217001C00303A
:10FE9200622762346241622A000000000000000012
:10FEA2000023F004005362466209000A0071610DEA
:10FEB200000E000F004C00280000000000000000AF
:10FEC2000001101D001B00060019000500110010A2
:10FED2000043624262004005100000000000000082
:10FEE2000000100310021002F035002F0030005302
:10FEF2000003F00240044006400000000000000041
:10FF02000020F022F02C003300340038005761103A
:10FF1200F011F012F0035001500000000000000048
:10FF2200001E001F002000210022002300240025C3
:10FF320000260027002D002E000000000000000017
:10FF4200002B0014001A000800150017001C0018EE
:10FF5200000C00120013002A000000000000000044
:10FF620000290004001600070009000A000B000D1A
:10FF7200000E000F004C00280000000000000000EE
:10FF82000001101D001B00060019000500110010E1
:10FF9200003600370052000510000000000000008B
:10FFA2000000100310021002F035002F003000395B
:10FFB2000003F0500051004F00000000000000005C
:10FFC2000020F022F02C0033003400380031000110
:10FFD200503E000350F140F04000000000000000DD
:10FFE200002D434F4E4E4543542C0048656C6C6FB8
:0EFFF20021212121212100566261743D000071
:020000040001F9
:100000000001E26F0001E251070D020EF326000E1F
:10001000F4228D0EF324D96E000EF420DA6EDF5038
:10002000D76FD751020D8B51D86FD96BD890D83775
:10003000D93789518A11DA6FDB6BD851DA27D95158
:10004000DB23D890DA37DB37EF0EDA25D96E000ED6
:10005000DB21DA6EDECFDCF0DDCFDDF0F350DC2724
:10006000F450DD23DCC0F6FFDDC0F7FF000EF86EB4
:10007000E251070D050EF326000EF4228D0EF32437
:10008000D96E000EF420DA6E0900F5CFDEFF08000D
:10009000F5CFDDFF8CD27951FF0A78178951FF0A1D
:1000A0008A1733841200E251070D050EF326000E65
:1000B000F4228D0EF324D96E000EF420DA6EDE04E5
:1000C00007E1100EDE18D8B478AB02D0789BB4D01C
:1000D000E251070D050EF326000EF4228D0EF324D7
:1000E000D96E000EF420DA6E050EDE1807E1100E50
:1000F000DE18D8B478A302D078939ED0E251070DD1
:10010000050EF326000EF4228D0EF324D96E000E98
:10011000F420DA6EDE5007E1100EDE18D8B478A9AC
:1001200002D0789989D0E251070D050EF326000E12
:10013000F4228D0EF324D96E000EF420DA6E040E34
:10014000DE1807E1100EDE18D8B478A102D078913D
:1001500073D0E251070D050EF326000EF4228D0E2A
:10016000F324D96E000EF420DA6E020EDE1807E1D9
:10017000100EDE18D8B478AD02D0789D5DD0E25173
:10018000070D050EF326000EF4228D0EF324D96E12
:10019000000EF420DA6E060EDE1807E1100EDE18EF
:1001A000D8B478A502D0789547D0E251070D050E56
:1001B000F326000EF4228D0EF324D96E000EF420E7
:1001C000DA6E030EDE1807E1100EDE18D8B478AF31
:1001D00002D0789F31D0E251070D050EF326000EB4
:1001E000F4228D0EF324D96E000EF420DA6E070E81
:1001F000DE1807E1100EDE18D8B478A702D0789781
:100200001BD0E251070D050EF326000EF4228D0ED1
:10021000F324D96E000EF420DA6EDF50D76F070E8C
:10022000D717010ED86FD72B02D0D890D837D72F39
:10023000FCD70001D851781BE251070D050EF326BB
:10024000000EF4228D0EF324D96E000EF420DA6E27
:10025000DF50D76F070ED717010ED86FD72B02D0FC
:10026000D890D837D72FFCD70001D85179133384D1
:100270001200E251070D050EF326000EF4228D0E3A
:10028000F324D96E000EF420DA6EDF50D76F070E1C
:10029000D717010ED86FD72B02D0D890D837D72FC9
:1002A000FCD70001D851791333841200E251070DB5
:1002B000050EF326000EF4228D0EF324D96E000EE7
:1002C000F420DA6EDF50D76F010ED86F000ED96FB1
:1002D000D72B03D0D890D837D937D72FFBD70001E9
:1002E000D8512C12D9512D1233821200828173D031
:1002F000828571D082836FD047C0D7F0D86BD7BFCB
:10030000D807010ED727000ED823D8BF0BD0D8515D
:1003100004E1080ED75DD8A005D0000EDF6F080EEF
:10032000DE6F09D0010E4724DE6FE86AD8B0E82AF4
:1003300047BEE806DF6FDEC047F04DD0FF0ED76F37
:10034000FF0ED86F47C0D9F0DA6BD9BFDA07D751A3
:10035000D927D851DA23DABF06D0DA5109E1040EE1
:10036000D95DD8B005D0000EE16F030EE06F0CD060
:10037000FF0ED76FFF0ED86FD7514724E06F000EE6
:1003800047BEFF0ED821E16FE0C047F024D0E25114
:10039000070D050EF326000EF4228D0EF324D96E00
:1003A000000EF420DA6EDECFD7F0DDCFD8F0D851D2
:1003B000500AD8A410D0D751010AD8B497D7030A4D
:1003C000D8B496D7010AD8B495D7070AD8B494D729
:1003D000010AD8B4B3D73388120033881200010E53
:1003E000896F1200010E896F8A51D8A402D0010EC4
:1003F00001D0000E8A6F1200000E8B6F1200010EEA
:100400008B6F1200020E8B6F1200328C12008080F4
:100410001200328A12003284120033861200E25136
:10042000070D050EF326000EF4228D0EF324D96E6F
:10043000000EF420DA6EDECFD7F0DDCFD8F0D85141
:10044000F00AD8A41200D751000AD8B4C8D7010ABC
:10045000D8B4C5D7030AD8B4C5D7010AD8B4C2D70F
:100460000E0AD8B4DAD71D0AD8B4C6D7010AD8B450
:10047000C6D7030AD8B4C6D7320AD8B4CAD7020A34
:10048000D8B4C9D7010AD8B4C0D7070AD8A4120073
:10049000BED77AAB03D0D76BD72B02D00001D76B76
:1004A0007AA303D0D86BD82B02D00001D86B79ABDC
:1004B00003D0D96BD92B02D00001D96B79A303D01B
:1004C000DA6BDA2B02D00001DA6B78AB03D0DB6B8E
:1004D000DB2B02D00001DB6B78A302D0010E01D030
:1004E000000EDB11DA11D911D811D7110009D8B4D7
:1004F00046D0E251070D050EF326000EF4228D0EB4
:10050000F324D96E000EF420DA6E920EDE1814E198
:10051000600EDE18D8A410D0E251070D050EF326A8
:10052000000EF4228D0EF324D96E000EF420DA6E44
:10053000950EDE6E600E22D0E251070D050EF326F9
:10054000000EF4228D0EF324D96E000EF420DA6E24
:10055000570EDE1814E1610EDE18D8A410D0E25157
:10056000070D050EF326000EF4228D0EF324D96E2E
:10057000000EF420DA6E240EDE6E610EDD6EE251A6
:10058000070D050EF326000EF4228D0EF324D96E0E
:10059000000EF420DA6EDECFD7F0DDCFD8F0FF0EFC
:1005A000D7152E6E0F0ED8152F6E338A1200000E3F
:1005B000D76FF00ED86FE251070D050EF326000E2F
:1005C000F4228D0EF324D96E000EF420DA6EDECF05
:1005D000D9F0DDCFDAF0D751D917D851DA17DA517F
:1005E000000AD8B416D0100AD8B418D0300AD8B43B
:1005F0001AD0100AD8B41CD0700AD8B41ED0100A71
:10060000D8B420D0300AD8B422D0900AD8A412008E
:1006100023D0D951000AD8A412003DD5D951000ADF
:10062000D8A4120040D5D951000AD8A4120021D66E
:10063000D951000AD8A4120039D6D951000AD8A439
:100640001200CBD6D951000AD8A41200A0D6D95195
:10065000000AD8A412001DD7D951000AD8A412004C
:10066000DED6C3EC94F0C1EC93F033EC90F0D30EF3
:100670000001D76F000ED86F000ED96F010EDA6F30
:10068000FBEC93F03D0E0001D76F000ED86F000E0B
:10069000D96F020EDA6FFBEC93F0410E0001D76FB9
:1006A000000ED86F000ED96F030EDA6FFBEC93F0DB
:1006B000390E0001D76F000ED86F000ED96F040EEF
:1006C000DA6FFBEC93F0000E0001D86F000ED76FCD
:1006D000E0EC93F000018B6F8B29D8A402D0000EC0
:1006E0008B6F000ED86F010ED76FE0EC93F0000116
:1006F0008A6F010E8A6502D0000E8A6F010EE46FC8
:100700002C0EE36F1AEC91F0F28E75EC94F0000E63
:1007100005010A6F0B0E0A6501D00CD00A51010DBC
:100720006C0EF324D96E000EF420DA6E000EDF6E2C
:100730000A2BF0D7C80E0001D76F000ED86F000E3D
:10074000D96F000EDA6F3FEC93F0000E05010B6FCE
:100750000B0E0B6501D018D00B51010D6C0EF3245C
:10076000D96E000EF420DA6E010EDF6E640E000109
:10077000D76F000ED86F000ED96F000EDA6F3FEC06
:1007800093F005010B2BE4D7C80E0001D76F000EC4
:10079000D86F000ED96F000EDA6F3FEC93F0000EA9
:1007A00005010C6F0B0E0C6501D018D00C51010D1A
:1007B0006C0EF324D96E000EF420DA6E000EDF6E9C
:1007C0000A0E0001D76F000ED86F000ED96F000E11
:1007D000DA6F3FEC93F005010C2BE4D7140E000107
:1007E000D76F000ED86F000ED96F000EDA6F3FEC96
:1007F00093F0ED0E0001E96FFF0EEA6F81EC93F0CC
:10080000328E8EA202D08C8E01D08C9E0001895136
:100810008A11706F70C06FF07AA504D00501006B6B
:10082000002B02D00501006B000179A504D0050161
:10083000016B012B02D00501016B000178A502D0EC
:10084000010E01D0000E0501011100110001726FAF
:100850007AA704D00501006B002B02D00501006BC4
:10086000000179A704D00501016B012B02D005011D
:10087000016B000178A702D0010E01D0000E050126
:10088000011100110001736F7AA104D00501006B02
:10089000002B02D00501006B000179A104D00501F5
:1008A000016B012B02D00501016B000178A102D080
:1008B000010E01D0000E0501011100110001716F40
:1008C0007AAB04D00501006B002B02D00501006B50
:1008D00000017AA304D00501016B012B02D00501B0
:1008E000016B000179AB04D00501026B022B02D031
:1008F0000501026B000179A304D00501036B032BF2
:1009000002D00501036B000178AB04D00501046B34
:10091000042B02D00501046B000178A302D0010E64
:1009200001D0000E05010411031102110111001183
:100930000001756F75C074F0000E0501066F0001AF
:100940008B51D8A412D08EA202D0010E01D0000E7D
:1009500088C000F50501016B001B000E011B005152
:100960000111D8B402D0010E066F06C56CF0000E5E
:100970000501076F00018B05D8A412D08EA202D00A
:10098000010E01D0000E88C000F50501016B001BAF
:10099000000E011B00510111D8B402D0010E076FE7
:1009A00007C56DF0000E0501086F020E00018B19DE
:1009B000D8A412D08EA202D0010E01D0000E88C0A1
:1009C00000F50501016B001B000E011B0051011118
:1009D000D8B402D0010E086F08C56EF015EC94F083
:1009E0000001766FD00E0501006FFD0E016FFBC098
:1009F00002F5FCC003F5D8900237033700510227F7
:100A00000151032300018C510501046F056B025154
:100A1000045D03510559D8B002D0010E01D0000E7B
:100A20000001776FA8EC90F021EC86F032AE07D091
:100A30006EEC90F0DDC0FBF0DEC0FCF0329E33A027
:100A400010D0D8EC94F0000E0501096F8EAC8EAE7C
:100A500002D0010E096F09B102D07E9801D07E88C4
:100A6000339033A20AD051EC91F0030E0001E46FF1
:100A7000E80EE36F1AEC91F0339233A410D0DBEC64
:100A80008DF04EEC8EF0010E0001E46F2C0EE36F42
:100A90001AEC91F000017A517B19D8B4339433A643
:100AA0000AD066EC94F0010E0001E46F2C0EE36FA7
:100AB0001AEC91F0339633AA0AD081EC8CF0010E37
:100AC0000001E46F2C0EE36F1AEC91F0339A33A817
:100AD00015D0ACEC88F0AEEC8FF0010E0001E46FA5
:100AE0002C0EE36F1AEC91F000018351D8A406D0CC
:100AF0008451D8A403D08551D8B4339832A008D0FB
:100B0000010E0001E46F2C0EE36F1AEC91F03290AD
:100B100032A209D0328A010E0001E46F2C0EE36F7D
:100B20001AEC91F0329232AC0AD0F3EC8FF0010E55
:100B30000001E46F2C0EE36F1AEC91F0329C32A6A8
:100B40000AD03CEC92F0020E0001E46F580EE36F05
:100B50001AEC91F0329632A80AD00AEC95F0010E08
:100B60000001E46F2C0EE36F1AEC91F0329832AA78
:100B70000AD0CEEC94F0010E0001E46F2C0EE36F6E
:100B80001AEC91F0329A32A43CD6000E0001D86FD4
:100B9000000ED76F8BC0D9F0FCEC92F0000E000174
:100BA000D86F010ED76F8AC0D9F0FCEC92F0000E1E
:100BB00005010D6F0B0E0D6501D00CD00D51010D0F
:100BC0006C0EF324D96E000EF420DA6E000EDF6E88
:100BD0000D2BF0D7C80E0001D76F000ED86F000E96
:100BE000D96F000EDA6F3FEC93F0000E05010E6F27
:100BF0000B0E0E6501D018D00E51010D6C0EF324B2
:100C0000D96E000EF420DA6E010EDF6E640E000164
:100C1000D76F000ED86F000ED96F000EDA6F3FEC61
:100C200093F005010E2BE4D7C80E0001D76F000E1C
:100C3000D86F000ED96F000EDA6F3FEC93F0FF0013
:100C4000E0D5000E7B6E00F0FF0E0001E36F0F0E8B
:100C5000E46F8D50010D330EF324F66EF90EF4207F
:100C6000F76EF86A000EF8220800F550E66FE56BA3
:100C70008A50010D330EF324F66EF90EF420F76E50
:100C8000F86A000EF8220800F550E513000EE6138E
:100C9000E51DE76FE61DE86FE351E717E451E8173C
:100CA000E751E811D8B481D0000EEC6F050EEC6569
:100CB00001D051D07B68000E826E0F0E85168268BF
:100CC000F00E8512EC51010D5B0EF324F66EFB0E57
:100CD000F420F76EF86A000EF8220800F5CF7BFFCB
:100CE00000F0FF0E0001E36F0F0EE46F8D50010D59
:100CF000330EF324F66EF90EF420F76EF86A000E48
:100D0000F8220800F550E66FE56B8A50010D330EAE
:100D1000F324F66EF90EF420F76EF86A000EF8224E
:100D20000800F550E513000EE613E51DE76FE61D1C
:100D3000E86FE351E717E451E817EC51020D600E3C
:100D4000F324D96E000EF420DA6EE7C0DEFFE8C0AF
:100D5000DDFFEC2BABD7000E7B6E000EEC6F050EAB
:100D6000EC6501D036D0EC51020D600EF324D96E43
:100D7000000EF420DA6EDECFEAF0DDCFEBF0000EED
:100D8000E96F0DD0EAA106D0EC51100DF350E92522
:100D90008BEC87F00001D890EB33EA33E92BEA5172
:100DA000EB11D8A4EFD7EC2BDAD7000EEC6F050EC1
:100DB000EC6501D00ED0EC51020D600EF324D96E1B
:100DC000000EF420DA6E000EDE6E000EDD6EEC2BEF
:100DD000EED7000EED6F090EED6501D01200ED515A
:100DE000070D020EF326000EF4228D0EF324D96EA9
:100DF000000EF420DA6EDE28D8B48AD0ED51070D4B
:100E0000020EF326000EF4228D0EF324D96E000E8E
:100E1000F420DA6EDF50E36F0F0EE317ED51070D8C
:100E2000020EF326000EF4228D0EF324D96E000E6E
:100E3000F420DA6EDF50E46FE4390F0BE56FE66BF8
:100E4000D890E537E637600EE525D96E000EE6212D
:100E5000DA6EDECFE7F0DDCFE8F0E32B03D0D890F9
:100E6000E833E733E32FFBD70001E7A138D0ED519A
:100E7000070D8D0EF324D96E000EF420DA6E050EE8
:100E8000DE18D8A421D0ED51070D010EF326000E77
:100E9000F4228D0EF324D96E000EF420DA6EDF50AA
:100EA000D8A436D0ED51070D010EF326000EF42222
:100EB0008D0EF324D96E000EF420DA6E010EDF6E73
:100EC000ED5100EC80F024D00001ED51070D8D0EA6
:100ED000F324D96E000EF420DA6EDF2A19D0ED511A
:100EE000070D8D0EF324D96E000EF420DA6EDF505C
:100EF000D8A404D0ED51C2EC8AF00AD00001ED5123
:100F0000070D8D0EF324D96E000EF420DA6EDF0685
:100F10000001ED2B60D70001DB6F000E0001D96FDF
:100F2000000EDA6F000EDE6F090EDE6501D012D002
:100F3000DE51070D020EF326000EF4228D0EF3246F
:100F4000D96E000EF420DA6EDB51DE18D8B4120030
:100F5000DE2BEAD7000EDE6F090EDE6501D086D0EB
:100F6000DE51070D020EF326000EF4228D0EF3243F
:100F7000D96E000EF420DA6EDF50DB19D76F0F0E3A
:100F8000D717D8A42FD0010ED96F000EDC6F090E31
:100F9000DC6501D069D0DC51070D020EF326000E8E
:100FA000F4228D0EF324D96E000EF420DA6EDF5099
:100FB000D76FDE51070D020EF326000EF4228D0EC0
:100FC000F324D96E000EF420DA6EDF50D719D86FF3
:100FD000F00ED817D8A404D0DE51DC19D8A4120022
:100FE000DC2BD5D7DE51070D020EF326000EF422BE
:100FF0008D0EF324D96E000EF420DA6EDF50DB196B
:10100000D76FF00ED717D8A42FD0010EDA6F000ECD
:10101000DD6F090EDD6501D027D0DD51070D020E11
:10102000F326000EF4228D0EF324D96E000EF42068
:10103000DA6EDF50D76FDE51070D020EF326000E79
:10104000F4228D0EF324D96E000EF420DA6EDF50F8
:10105000D719D86F0F0ED817D8A404D0DE51DD19D8
:10106000D8A41200DD2BD5D7DE2B76D7D951D8B432
:1010700003D0DA51D8A41200000EDE6F090EDE652F
:1010800001D01200DE51070D020EF326000EF422ED
:101090008D0EF324D96E000EF420DA6EDE28D8A46B
:1010A00059D0DE51070D020EF326000EF4228D0EEC
:1010B000F324D96E000EF420DA6EDBC0DFFFDE51C0
:1010C000070D8D0EF324D96E000EF420DA6E010E9A
:1010D000DF6EDE51070D040EF326000EF4228D0E96
:1010E000F324D96E000EF420DA6EFF0EDF6E462870
:1010F000D8A411D0DEC046F0DE51070D030EF32652
:10110000000EF4228D0EF324D96E000EF420DA6E58
:10111000FF0EDF6E1CD04550070D040EF326000EA7
:10112000F4228D0EF324D96E000EF420DA6EDEC0A8
:10113000DFFFDE51070D030EF326000EF4228D0EA5
:10114000F324D96E000EF420DA6E45C0DFFFDEC056
:1011500045F01200DE2B92D745C0E0F0000E0001F2
:10116000836F000E846F000E856F08D1E051070D6C
:10117000020EF326000EF4228D0EF324D96E000E1B
:10118000F420DA6EDF50D76FD751020D8B51D86F34
:10119000D96BD890D837D93789518A11DA6FDB6B80
:1011A000D851DA27D951DB23D890DA37DB37EF0E65
:1011B000DA25D96E000EDB21DA6EDECFDCF0DDCF72
:1011C000DDF0F350DC27F450DD23DCC0F6FFDDC09A
:1011D000F7FF000EF86E0900F5CFDEF00A00F5CF3C
:1011E000DFF0000ED76FF00ED86FDEC0D9F0DFC091
:1011F000DAF0D751D917D851DA17400EDA19D911C8
:10120000D8B46ED0ADD0000E836F846912008369AC
:10121000846912008369000E846F12008369010ED5
:10122000846F1200000E836F010E846F1200010E96
:10123000836F010E846F1200010E836F000E846FA6
:101240001200010E836F84691200000E836F4750F5
:10125000010DF3500008846F12004750010DF35048
:101260000008836F4750010DF3500008846F12008F
:101270004750010DF3500008836F000E846F120079
:101280004750010DF3500008836F4750010DF3CF15
:1012900084F01200000E836F4750010DF3CF84F0ED
:1012A00012004750010DF3CF83F04750010DF3CFEB
:1012B00084F012004750010DF3CF83F0000E846FCD
:1012C00012004750010DF3CF83F04750010DF3504A
:1012D0000008846F1200010E856F120085691200EC
:1012E000DEC0D7F0DFC0D8F0D851400AD8A4120031
:1012F000D751000AD8B487D7010AD8B488D7030ACF
:10130000D8B488D7010AD8B489D7070AD8B48AD7FD
:10131000010AD8B48CD7030AD8B48ED7010AD8B43E
:1013200090D7170AD8B491D7010AD8B496D7030A30
:10133000D8B49ED7010AD8B4A3D7070AD8B4AAD77D
:10134000010AD8B4AED7030AD8B4B4D7010AD8B4C6
:10135000B8D7E70AD8B4BFD7010AD8A41200BED7BD
:10136000E051070D030EF326000EF4228D0EF32438
:10137000D96E000EF420DA6EDF50E06FE029D8B4A9
:101380001200F4D6D9CF0BF0DACF0CF0F3CF0DF07A
:10139000F4CF0EF0F6CF0FF0F7CF10F0F8CF11F03A
:1013A000F5CF12F00E0138A13ED0CE68389166EC30
:1013B0008FF0010E2826000E29222A222B22FF0E52
:1013C0002814076EFF0E2914086E000E2A14096EE9
:1013D000000E2B140A6E0750081009100A10D8B41A
:1013E000328EFF0E2814076E030E2914086E000EAD
:1013F0002A14096E000E2B140A6E075008100910EB
:101400000A10D8B433808EBEABD0245025102610DD
:101410002710D8B406D02406000E255A265A275A7B
:101420009FD032849DD036AF51D08694F5B302D090
:10143000F5A506D01DEC95F00E01F599F58944D07F
:101440001DEC95F0136E410E016E000E026E13C07E
:1014500003F0E2EC91F0E30EF66EFF0EF76E000E75
:10146000F86E0800F5501318D8A402D0010E26D04B
:101470003750010DE30EF324F66EFF0EF420F76EE5
:10148000F86A000EF8220800F5501318D8A415D0F9
:10149000372AE30E016EFF0E026E60EC93F03750B8
:1014A000076E086A015007180AE102500818D8A40C
:1014B00006D0000E376E328802D0000E376E010E55
:1014C000386E0E0136BF4CD086844AD037AB48D038
:1014D0007E90E0B302D0E0A506D01AEC95F00E01A4
:1014E000E099E0893CD01AEC95F0146E410E016E43
:1014F000000E026E14C003F0E2EC91F0210E1418FD
:10150000D8A402D0799829D0400E1418D8A402D0BB
:10151000798823D0230E1418D8A402D0FF001DD040
:10152000240E1418D8A402D0328617D0250E141811
:10153000D8A402D0328A11D05E0E1418D8A402D0DA
:10154000328C0BD01450D8B408D0D30E016E000EDC
:10155000026E14C003F0E2EC91F00E0137AB7E8016
:1015600012C0F5FF11C0F8FF10C0F7FF0FC0F6FF63
:101570000EC0F4FF0DC0F3FF0CC0DAFF0BC0D9FFA3
:10158000489211000001DE6F0001DE51A4EC8BF0E7
:101590000001DE51070D010EF326000EF4228D0E20
:1015A000F324D96E000EF420DA6E000EDF6EDE51E9
:1015B000070D020EF326000EF4228D0EF324D96ED1
:1015C000000EF420DA6EFF0EDF6EDE51070D050E01
:1015D000F326000EF4228D0EF324D96E000EF420B3
:1015E000DA6E000EDE6E000EDD6EDE51070D040EAB
:1015F000F326000EF4228D0EF324D96E000EF42093
:10160000DA6EDE28D8A420D0DE51070D030EF326B3
:10161000000EF4228D0EF324D96E000EF420DA6E43
:10162000DF50456E4528D8B437D04550070D040E1D
:10163000F326000EF4228D0EF324D96E000EF42052
:10164000DA6EFF0EDF6E28D0DE51070D030EF32693
:10165000000EF4228D0EF324D96E000EF420DA6E03
:10166000DE51070D040EF326000EF4228D0EF32436
:10167000E16E000EF420E26EE750DD6FDD51070DE4
:10168000030EF326000EF4228D0EF324E16E000EFD
:10169000F420E26EDFCFE7FFDE51070D030EF326E5
:1016A000000EF4228D0EF324D96E000EF420DA6EB3
:1016B000DE28D8A420D0DE51070D040EF326000E3C
:1016C000F4228D0EF324D96E000EF420DA6EDF5072
:1016D000466E4628D8B412004650070D030EF32676
:1016E000000EF4228D0EF324D96E000EF420DA6E73
:1016F000FF0EDF6E1200DE51070D040EF326000E02
:10170000F4228D0EF324D96E000EF420DA6EDE5131
:10171000070D030EF326000EF4228D0EF324E16E66
:10172000000EF420E26EE750DD6FDD51070D040E70
:10173000F326000EF4228D0EF324E16E000EF42049
:10174000E26EDFCFE7FF12000001DC6F94D033843C
:101750001200DC51070D050EF326000EF4228D0E4B
:10176000F324D96E000EF420DA6EDF50D76F070E27
:10177000D717010ED86FD72B02D0D890D837D72FD4
:10178000FCD70001D851FF0A791733841200DC51CD
:10179000070D050EF326000EF4228D0EF324D96EEC
:1017A000000EF420DA6EDF50D76F010ED86F000EF6
:1017B000D96FD72B03D0D890D837D937D72FFBD7AD
:1017C0000001D81DDA6FD91DDB6FDA512C16DB5101
:1017D0002D1633821200829122D0829520D08293DE
:1017E0001ED0DC51070D050EF326000EF4228D0EDF
:1017F000F324D96E000EF420DA6EDECFD7F0DDCF01
:10180000D8F0D851500AD8A40AD0D751010AD8B478
:10181000E2D7030AD8B4E1D7010AD8B4E0D73388B5
:101820001200000E896F120080901200DC51070D2B
:10183000050EF326000EF4228D0EF324D96E000E51
:10184000F420DA6EDECFD7F0DDCFD8F0D851F00A31
:10185000D8A41200D751000AD8B4E3D7010AD8B4EB
:10186000E0D7030AD8B4DDD7010AD8B4DAD7270AFB
:10187000D8A41200D9D7000E0001D76FF00ED86F90
:10188000DC51070D050EF326000EF4228D0EF32415
:10189000D96E000EF420DA6EDECFD9F0DDCFDAF0AB
:1018A000D751D917D851DA17DA51000AD8B410D065
:1018B000100AD8B412D0300AD8B40FD0100AD8B455
:1018C00011D0600AD8B413D0A00AD8A4120014D042
:1018D000D951000AD8A412003AD7D951000AD8A485
:1018E000120037D7D951000AD8A4120050D7D951C5
:1018F000000AD8A4120075D7D951000AD8A4120042
:1019000095D7000E0001EC6F8851D8B412003D0E3F
:10191000E36F000EE46FFE0EE56F84EC91F03D0E78
:101920000001E36F000EE46F020EE56F84EC91F0AE
:101930003D0E0001E36F000EE46F040EE56F84ECD2
:1019400091F03D0E0001E36F000EE46F000EE56FB5
:1019500084EC91F01EEC93F03D0E0001E36F000E5D
:10196000E46FFE0EE56F84EC91F03D0E0001E36F35
:10197000000EE46F020EE56F84EC91F03D0E000165
:10198000E36F000EE46F040EE56F84EC91F02F50CE
:101990000F0B580F0001EC6F580EEC19D8A402D0B1
:1019A000620EEC6F3D0EE36F000EE46FECC0E5F0ED
:1019B00084EC91F01EEC93F03D0E0001E36F000EFD
:1019C000E46FFE0EE56F84EC91F03D0E0001E36FD5
:1019D000000EE46F020EE56F84EC91F03D0E000105
:1019E000E36F000EE46F040EE56F84EC91F02EC0FF
:1019F000E9F02FC0EAF0040E0001EB6FD890EA3353
:101A0000E933EB2FFBD7E9510F0B580FEC6F580E52
:101A1000EC19D8A402D0620EEC6F3D0EE36F000EFD
:101A2000E46FECC0E5F084EC91F01EEC93F03D0E19
:101A30000001E36F000EE46FFE0EE56F84EC91F0A1
:101A40003D0E0001E36F000EE46F020EE56F84ECC3
:101A500091F03D0E0001E36F000EE46F040EE56FA0
:101A600084EC91F02E500F0B580F0001EC6F580EC4
:101A7000EC19D8A402D0620EEC6F3D0EE36F000E9D
:101A8000E46FECC0E5F084EC91F01EEC93F03D0EB9
:101A90000001E36F000EE46FFE0EE56F84EC91F041
:101AA0003D0E0001E36F000EE46F000EE56F84EC65
:101AB00091F01EEC93F01200F90E0001E96FFF0E99
:101AC000EA6F81EC93F0390E0001E36F000EE46FD2
:101AD000EBC0D7F0ECC0D8F0000EDA6F640ED96F0F
:101AE00068EC92F00001D751300FE56F84EC91F073
:101AF000390E0001E36F000EE46F2E0EE56F84ECEB
:101B000091F0390E0001E36F000EE46F000EDA6F02
:101B10000A0ED96FEBC0D7F0ECC0D8F068EC92F0A9
:101B2000D7C0DEF0D8C0DFF0000E0001E16F0A0E72
:101B3000E06FDAEC92F00001DE51300FE56F84ECDB
:101B400091F0390E0001E36F000EE46FEBC0DEF0A0
:101B5000ECC0DFF0000EE16F0A0EE06FDAEC92F0FD
:101B60000001DE51300FE56F84EC91F0390E000179
:101B7000E36F000EE46F560EE56F84EC91F0390EC2
:101B80000001E36F000EE46F200EE56F84EC91F02E
:101B9000390E0001E36F000EE46F0D0EE56F84EC6B
:101BA00091F0390E0001E36F000EE46F0D0EE56F4A
:101BB00084EC91F0120046C0DBF0000E0001DC6FF7
:101BC0007AC07BF0000E7A6F56D0DB51070D010E04
:101BD000F326000EF4228D0EF324D96E000EF420AD
:101BE000DA6EDF50D8B439D0DB51070D050EF3267D
:101BF000000EF4228D0EF324D96E000EF420DA6E5E
:101C0000DECFD9F0DDCFDAF0F00EDA15D8A425D08A
:101C1000060EDC6122D0000ED86F0DD0D851010D18
:101C20007C0EF324D96E000EF420DA6ED951DE1842
:101C3000D8B413D0D82BDC51D85DD8A0EFD7DA5167
:101C40000F0B7A13DC51010D7C0EF324D96E000EBC
:101C5000F420DA6ED9C0DFFFDC2BDB51070D040E58
:101C6000F326000EF4228D0EF324D96E000EF4201C
:101C7000DA6EDF50DB6FDB29D8A4A7D7050EDC6551
:101C800001D01200DC51010D7C0EF324D96E000E40
:101C9000F420DA6E000EDF6EDC2BF0D700018851E5
:101CA000D8B412003D0EE36F000EE46FFD0EE56F39
:101CB00084EC91F03D0E0001E36F000EE46F090E1D
:101CC000E56F84EC91F03D0E0001E36F000EE46FD0
:101CD000010EE56F84EC91F03D0E0001E36F000E04
:101CE000E46F79517A117B117811E56F84EC91F0F2
:101CF0003D0E0001E36F000EE46F000EE56F84EC13
:101D000091F03D0E0001E36F000EE46F7CC0E5F042
:101D100084EC91F03D0E0001E36F000EE46F7DC096
:101D2000E5F084EC91F03D0E0001E36F000EE46FEE
:101D30007EC0E5F084EC91F03D0E0001E36F000EF3
:101D4000E46F7FC0E5F084EC91F03D0E0001E36F9D
:101D5000000EE46F80C0E5F084EC91F03D0E0001D0
:101D6000E36F000EE46F81C0E5F084EC91F01EECAF
:101D700093F01200778E779CEA0EF66E290EF76EBE
:101D8000010EF86E00EEEFF010EE0EF00900F5CF48
:101D9000EEFFE550E150FAE1400EF66E2A0EF76EC6
:101DA000010EF86E0900F5CF45F00900F5CF46F0B9
:101DB0000900F5CF47F004EE00F011EE00F0EE6AF6
:101DC000E550E150FCE1E250FAE103EE00F011EEE3
:101DD00000F0EE6AE550E150FCE1E250FAE102EE7B
:101DE00000F011EE00F0EE6AE550E150FCE1E25047
:101DF000FAE101EE00F011EE00F0EE6AE550E1507C
:101E0000FCE1E250FAE100EE60F0770EEE6AE806DF
:101E1000FDE100EE24F0210EEE6AE806FDE14890B7
:101E20004892000131EF83F0030E84128268000EA5
:101E3000836EF00E856E0E019969000EA16FF00E93
:101E4000AE6F000E0001D76F050ED76501D00ED022
:101E5000D751020D600EF324D96E000EF420DA6E15
:101E6000000EDE6E000EDD6ED72BEED7000ED76FA4
:101E7000090ED76501D01200D751070D8D0EF3243E
:101E8000D96E000EF420DA6E000EDF6ED751070D0A
:101E9000020EF326000EF4228D0EF324D96E000EEE
:101EA000F420DA6EFF0EDF6ED751070D050EF32614
:101EB000000EF4228D0EF324D96E000EF420DA6E9B
:101EC000000EDE6E000EDD6ED72BD2D7362A0C0E3A
:101ED0003618D8A402D0000E366EF00E7D1636509D
:101EE000010D430EF324F66EFB0EF420F76EF86A34
:101EF000000EF8220800F5CF01F03650010D4F0E0C
:101F0000F324F66EFB0EF420F76EF86A000EF8224A
:101F10000800F5500110FF0A026E0F0E02168550E0
:101F2000F00B0210856E3650010D6C0EF324D96E45
:101F3000000EF420DA6EDF50D8B412003650010DD6
:101F40004F0EF324F66EFB0EF420F76EF86A000EC7
:101F5000F8220800F5500F0B7D1212000001885185
:101F6000D8B412003D0EE36F000EE46FFD0EE56F76
:101F700084EC91F03D0E0001E36F000EE46F050E5E
:101F8000E56F84EC91F03D0E0001E36F000EE46F0D
:101F9000020EE56F84EC91F03D0E0001E36F000E40
:101FA000E46F82C0E5F084EC91F03D0E0001E36F38
:101FB000000EE46F83C0E5F084EC91F03D0E00016B
:101FC000E36F000EE46F84C0E5F084EC91F03D0E09
:101FD0000001E36F000EE46F85C0E5F084EC91F042
:101FE0001EEC93F012006EEC90F0DDC0EDF0DEC060
:101FF000EEF0EDC0EBF0EEC0ECF05CEC8DF0910E8D
:102000000001ED5D010EEE59D8A002D0010E01D005
:10201000000E6F6F730EED5D010EEE59D8A002D069
:10202000010E01D0000E726F5F0EED5D010EEE59D4
:10203000D8A002D0010E01D0000E736F4B0EED5DE3
:10204000010EEE59D8A002D0010E01D0000E716F22
:10205000F40ED76F010ED86F000ED96F000EDA6F35
:102060003FEC93F0120093EC94F0B7EC94F0E2ECB8
:1020700094F014EC8FF00E0E0E01836F11911193FA
:10208000119511971189118B140E856F1791178374
:10209000179517971789178B050ED26E010ECF6E05
:1020A000050ECC6E010EC96E820EC46F92EC92F0DA
:1020B0009FEC94F0ABEC94F0F28A0E01228F2C8FFF
:1020C000229D2C8D238B2D8B23992D8924812E816C
:1020D00024952E85F28C798886841200000E0001EA
:1020E000E46F000EE36F000EE26F798A000EE46F7A
:1020F000090EE46501D014D0000E3EEC94F0D7C078
:10210000E0F0D8C0E1F00001E051E25DE151E359B7
:10211000D8B004D0E0C0E2F0E1C0E3F0E42BE8D7AF
:10212000799AE2C0D7F0E3C0D8F0000EDA6F6C0EF7
:10213000D96F2AEC94F0070E0001DF6FD890D833E6
:10214000D733DF2FFBD7D7C0DDF0D8C0DEF01200C9
:102150008CBC02D0010E01D0000E3418D8B417D0B8
:10216000352A0A0E3518D8A414D03450D8A402D079
:10217000010E01D0000E346E3450D8A40AD0D00E17
:10218000305C070E3158D8B004D0328002D0000E37
:10219000356E3450D8B410D0D00E30180AE1070E86
:1021A0003118D8A406D03282070E316ED10E306EAF
:1021B0001200304A312A1200000E316E000E306ECD
:1021C0001200000E7C6E000E796E050E7E6E020E01
:1021D0007F6E000E806E430E846E010E816EEE0ED9
:1021E000866E050E876E000E886EBF0E0E01A76FFD
:1021F0009269B469BC69400EA66F000E916F000E23
:10220000B36F200EBB6F000EC06FA3698E69B069FB
:10221000B869BD69A4698F69B169B969BE69000E01
:10222000A56F000E906F010EB26F000EBA6F000E18
:10223000BF6F1200E3C0D7F0E4C0D8F00001D96B43
:10224000DA6BA10EDB6F070EDC6F000EDD6F000E88
:10225000DE6F10EC92F0D7C0E6F0D8C0E7F0D9C03E
:10226000E8F0DAC0E9F0000EF2BE010E0001E56F01
:10227000F29EE651245CE7512558E8512658E95171
:102280002758D8B008D0E6C024F0E7C025F0E8C051
:1022900026F0E9C027F0E5B102D0F29E01D0F28E1F
:1022A000120000018851D8B412003D0EE36F000EF9
:1022B000E46FFD0EE56F84EC91F03D0E0001E36FDD
:1022C000000EE46F030EE56F84EC91F03D0E00010B
:1022D000E36F000EE46F030EE56F84EC91F03D0EAA
:1022E0000001E36F000EE46F2CC0E5F084EC91F088
:1022F0003D0E0001E36F000EE46F2D50E56F84EC9E
:1023000091F01EEC93F01200000120EE02F0E35178
:10231000D926E451DA22DF50E66FE651010DE3C021
:10232000D9FFE4C0DAFFDECFE7F0DDCFE8F0F3500D
:10233000E725D96EF450E821DA6EE5C0DFFF20EE24
:1023400002F0E351D926E451DA22DF2A8EB402D01A
:102350000E012C8D8EBC12008EAE12008EBA1200B1
:102360000E012D891200000120EE02F0D751D9266E
:10237000D851DA22DF50DA6FDA51010DD7C0D9FF18
:10238000D8C0DAFFDECFDBF0DDCFDCF0F350DB25A9
:10239000D96EF450DC21DA6ED9C0DFFF20EE02F0F6
:1023A000D751D926D851DA22DF2A8EB402D00E01B5
:1023B0002C8D8EBC12008EAE12008EBA12000E0151
:1023C0002D89120020EE02F00150D9260250DA22A7
:1023D000DF50046E0450010D01C0D9FF02C0DAFFC6
:1023E000DECF05F0DDCF06F0F3500524D96EF450B2
:1023F0000620DA6E03C0DFFF20EE02F00150D9267E
:102400000250DA22DF2A8EB402D00E012C8D8EBC4F
:1024100012008EAE12008EBA12000E012D8912002B
:10242000000E0001DF6F000EE06F000EE16F000E86
:10243000E26FD7A108D0DB51DF27DC51E023DD516B
:10244000E123DE51E223D890DB37DC37DD37DE379E
:10245000D890DA33D933D833D733D751D811D911EB
:10246000DA11D8A4E6D7DFC0D7F0E0C0D8F0E1C0D9
:10247000D9F0E2C0DAF0120000018851D8A452EC81
:1024800094F0E80E0001D76F030ED86F000ED96FDD
:10249000000EDA6F3FEC93F03D0E0001D76F000E97
:1024A000D86F240ED96FB3EC91F03D0E0001D76FB9
:1024B000000ED86F240ED96FB3EC91F03D0E0001E1
:1024C000D76F000ED86F240ED96FB3EC91F01200C5
:1024D000000E0001DD6F000EDC6FD951DA11D8B4A7
:1024E0001CD0010EDB6F04D0D890D937DA37DB2B44
:1024F000DAAFFAD7D890DC37DD37D951D75DDA516A
:10250000D859D8A005D0D951D75FDA51D85BDC8132
:10251000D890DA33D933DB2FEDD7DCC0D7F0DDC06C
:10252000D8F01200000E6A6E000E6B6E000E6C6E1C
:10253000000E6D6E000E686E000E696E000E666E07
:10254000000E0F015F6F000E5D6F000E596F000EE1
:102550005A6F000E5B6F5C69000E656E030E586F5C
:10256000000E566F000E576F940E606E120020EE34
:1025700003F01550D9261650DA22DF50176E175087
:10258000010D15C0D9FF16C0DAFFDECF18F0DDCF80
:1025900019F0F3501824D96EF4501920DA6EDF5078
:1025A0001A6E20EE03F01550D9261650DA22DF2AD3
:1025B0001A5012000001E051E111D8B418D0010EF8
:1025C000E26F04D0D890E037E137E22BE1AFFAD7E1
:1025D000E051DE5DE151DF59D8A004D0E051DE5F6B
:1025E000E151DF5BD890E133E033E22FF1D7DEC079
:1025F000DEF0DFC0DFF01200000EF2BE010E0001BF
:10260000DA6FF29E3F0E7716D7C074FFD8C075FF01
:10261000D9C076FF7784550E786EAA0E786E7782D1
:1026200077B2FED7779477503F0B8009776E000121
:10263000DAB102D0F29E01D0F28E1200000E386E96
:102640003D0E0001E36F000EE46FFF0EE56F84ECBA
:1026500091F0000E286E000E296E000E2A6E000EFC
:102660002B6E3850D8A412002B502A1007E1100E00
:10267000285C270E2958D8B01200F3D71200000E9C
:10268000286E000E296E000E2A6E000E2B6E28C0DA
:10269000DBF029C0DCF02AC0DDF02BC0DEF0000149
:1026A000D890DE33DD33DC33DB33D751DB5DD851FB
:1026B000DC59D951DD59DA51DE59D8B01200E7D7CB
:1026C00001C005F002C006F002D0014A022A01C092
:1026D000F6FF02C0F7FF000EF86E0800F550000983
:1026E000D8A4F3D705C003F006C004F0031E041EEF
:1026F000034A042A01500324016E02500420026E92
:10270000120013D0390E0001E36F000EE46FE9C030
:10271000F6FFEAC0F7FF000EF86E0800F5CFE5F00F
:1027200084EC91F00001E94BEA2BE9C0F6FFEAC026
:10273000F7FF000EF86E0800F5500009D8B412003B
:10274000E1D77A68000E7B6EF00E7D6E8268000E17
:10275000836EF00E856E000E0E019A6F000EAF6F45
:102760009969000EA16FF00EAE6F96699E69AB6914
:1027700097699F69AC69000E986FA069000EAD6FF4
:1027800012000D01F291F283F285F287F289F29B39
:10279000F29EF2940E011F8533952985000E936FEA
:1027A000000EA86F9469F00EA96F29891F898C9E6D
:1027B000030000F08C8E0E01299529998C9E120041
:1027C000000EF2BE010E0001D96FF29E3F0E771689
:1027D000D7C074FFD8C075FF778076CFDAF0775016
:1027E0003F0B8009776ED9B102D0F29E01D0F28EF4
:1027F0000001DA511200D7C0D9FFD8C0DAFFD9C022
:10280000DEFFDAC0DDFF000120EE02F0D751D9264D
:10281000D851DA22000EDF6E20EE03F0D751D92610
:10282000D851DA22000EDF6E120086860E01B387C1
:1028300000F000F000F000F08EB602D0010E01D0E2
:10284000000E0001D76F0E01B3977E9686960001A9
:10285000D75112000001D751D903F3CFDBF0F4CFE9
:10286000DCF0D751DA03F350DC27D851D903F35009
:10287000DC27DBC0D7F0DCC0D8F012000001DB6F32
:10288000DBC05FFF608E609C608060B0FED76450EC
:102890000001DA6FD96B6350D925D76F000EDA21AA
:1028A000D86F12000A0E0001D76F000ED86F000E0D
:1028B000D96F000EDA6F3FEC93F07992000E0001B1
:1028C000886F000E876F000E866F1200000188511E
:1028D000D8B412003D0EE36F000EE46F7F0EE56F7B
:1028E00084EC91F01EEC93F0120079927988C80E76
:1028F0000001D76F000ED86F000ED96F000EDA6F8F
:102900003FEC93F07982120020EE02F01550D926A8
:102910001650DA2210EE03F01550E1261650E2228E
:10292000DFCFE7FF12003A0E0E014C6FF50E4D6F30
:102930004E69DF0E4F6F5069B70E516F1200180EBF
:102940000E01E26F900EE06F240EE16F220EDE6F3B
:10295000000EDF6F1200080E0E01F76F900EF56F7C
:10296000240EF66F220EF36F000EF46F1200600E4D
:102970000E01436F000E456F000E476F050E496F45
:10298000000E486F120077503F0B8009776EE1EC24
:1029900090F0A1EC93F0ECEC94F01200000188515F
:1029A000D8B403D052EC94F0120075EC94F01200FD
:1029B0008EA21200000E0001876F000E866F000EBF
:1029C000886F1200000E0E01A76F010E926F000EAD
:1029D000B46F000EBC6F12000E014C694D694E6958
:1029E0004F69506951694C91120023FF63FEA3FDAA
:1029F000E3FC23FC63FBFFFF156E0E01E1A3FDD793
:102A000015C0DDFE1200156E0E01F6A3FDD715C030
:102A1000F2FE12008EB2FED7010E0001886F120086
:102A2000166E1650FCEC94F01200166E165003EC65
:102A300095F012000E01DC5112000E01F15112004E
:032A4000FFFF0590
:020000040020DA
:10000000FF0FFF0FFF0FFF0FFF0FFF0FFF0FFF0F80
:020000040030CA
:0C000000ECDF1EF49FFFFFCCFFFFFFFFB2
:00000001FF
